{
  "contractName": "Core",
  "abi": [
    {
      "constant": false,
      "inputs": [
        {
          "name": "_newOwner",
          "type": "address"
        }
      ],
      "name": "setOwner",
      "outputs": [],
      "payable": false,
      "stateMutability": "nonpayable",
      "type": "function"
    },
    {
      "constant": false,
      "inputs": [],
      "name": "destroy",
      "outputs": [],
      "payable": false,
      "stateMutability": "nonpayable",
      "type": "function"
    },
    {
      "constant": true,
      "inputs": [],
      "name": "owner",
      "outputs": [
        {
          "name": "",
          "type": "address"
        }
      ],
      "payable": false,
      "stateMutability": "view",
      "type": "function"
    },
    {
      "constant": false,
      "inputs": [
        {
          "name": "_recipient",
          "type": "address"
        }
      ],
      "name": "destroyAndSend",
      "outputs": [],
      "payable": false,
      "stateMutability": "nonpayable",
      "type": "function"
    },
    {
      "inputs": [],
      "payable": false,
      "stateMutability": "nonpayable",
      "type": "constructor"
    },
    {
      "anonymous": false,
      "inputs": [
        {
          "indexed": false,
          "name": "member",
          "type": "address"
        },
        {
          "indexed": false,
          "name": "time",
          "type": "uint256"
        }
      ],
      "name": "LogDonation",
      "type": "event"
    },
    {
      "anonymous": false,
      "inputs": [
        {
          "indexed": false,
          "name": "proposedMember",
          "type": "address"
        },
        {
          "indexed": false,
          "name": "votingEnd",
          "type": "uint256"
        }
      ],
      "name": "LogNewVoting",
      "type": "event"
    },
    {
      "anonymous": false,
      "inputs": [
        {
          "indexed": false,
          "name": "proposedMember",
          "type": "address"
        }
      ],
      "name": "LogSuccessfulVoting",
      "type": "event"
    },
    {
      "anonymous": false,
      "inputs": [
        {
          "indexed": true,
          "name": "_oldOwner",
          "type": "address"
        },
        {
          "indexed": false,
          "name": "_newOwner",
          "type": "address"
        }
      ],
      "name": "OwnerChanged",
      "type": "event"
    },
    {
      "constant": false,
      "inputs": [
        {
          "name": "_newMember",
          "type": "address"
        }
      ],
      "name": "addMember",
      "outputs": [],
      "payable": false,
      "stateMutability": "nonpayable",
      "type": "function"
    },
    {
      "constant": false,
      "inputs": [
        {
          "name": "_memberToRemove",
          "type": "address"
        }
      ],
      "name": "removeMember",
      "outputs": [],
      "payable": false,
      "stateMutability": "nonpayable",
      "type": "function"
    },
    {
      "constant": false,
      "inputs": [
        {
          "name": "_proposedMember",
          "type": "address"
        }
      ],
      "name": "proposeMember",
      "outputs": [],
      "payable": false,
      "stateMutability": "nonpayable",
      "type": "function"
    },
    {
      "constant": false,
      "inputs": [
        {
          "name": "_proposedMember",
          "type": "address"
        }
      ],
      "name": "givePermission",
      "outputs": [],
      "payable": false,
      "stateMutability": "nonpayable",
      "type": "function"
    },
    {
      "constant": false,
      "inputs": [],
      "name": "donate",
      "outputs": [],
      "payable": true,
      "stateMutability": "payable",
      "type": "function"
    },
    {
      "constant": true,
      "inputs": [
        {
          "name": "_proposedMember",
          "type": "address"
        }
      ],
      "name": "getVotingInfo",
      "outputs": [
        {
          "name": "permissionsStillNeeded",
          "type": "uint256"
        },
        {
          "name": "votingHasEnded",
          "type": "bool"
        }
      ],
      "payable": false,
      "stateMutability": "view",
      "type": "function"
    }
  ],
  "bytecode": "0x6060604052341561000f57600080fd5b336000806101000a81548173ffffffffffffffffffffffffffffffffffffffff021916908373ffffffffffffffffffffffffffffffffffffffff16021790555061007033600161007564010000000002610e7e179091906401000000009004565b61010d565b6060604051908101604052806000815260200142815260200160008152508260010160008373ffffffffffffffffffffffffffffffffffffffff1673ffffffffffffffffffffffffffffffffffffffff16815260200190815260200160002060008201518160000155602082015181600101556040820151816002015590505081600001600081548092919060010191905055505050565b6110d88061011c6000396000f3006060604052600436106100a4576000357c0100000000000000000000000000000000000000000000000000000000900463ffffffff1680630b1ca49a146100a957806313af4035146100e25780633d391f701461011b5780633f639ada146101545780636e768f5a146101ac57806383197ef0146101e55780638da5cb5b146101fa578063ca6d56dc1461024f578063ed88c68e14610288578063f5074f4114610292575b600080fd5b34156100b457600080fd5b6100e0600480803573ffffffffffffffffffffffffffffffffffffffff169060200190919050506102cb565b005b34156100ed57600080fd5b610119600480803573ffffffffffffffffffffffffffffffffffffffff169060200190919050506103ba565b005b341561012657600080fd5b610152600480803573ffffffffffffffffffffffffffffffffffffffff1690602001909190505061052f565b005b341561015f57600080fd5b61018b600480803573ffffffffffffffffffffffffffffffffffffffff16906020019091905050610605565b60405180838152602001821515151581526020019250505060405180910390f35b34156101b757600080fd5b6101e3600480803573ffffffffffffffffffffffffffffffffffffffff16906020019091905050610677565b005b34156101f057600080fd5b6101f8610712565b005b341561020557600080fd5b61020d610786565b604051808273ffffffffffffffffffffffffffffffffffffffff1673ffffffffffffffffffffffffffffffffffffffff16815260200191505060405180910390f35b341561025a57600080fd5b610286600480803573ffffffffffffffffffffffffffffffffffffffff169060200190919050506107ab565b005b61029061087b565b005b341561029d57600080fd5b6102c9600480803573ffffffffffffffffffffffffffffffffffffffff169060200190919050506108ad565b005b6000809054906101000a900473ffffffffffffffffffffffffffffffffffffffff1673ffffffffffffffffffffffffffffffffffffffff163373ffffffffffffffffffffffffffffffffffffffff1614151561032657600080fd5b80600073ffffffffffffffffffffffffffffffffffffffff168173ffffffffffffffffffffffffffffffffffffffff161415151561036357600080fd5b61037782600161095d90919063ffffffff16565b151561038257600080fd5b6103968260016109af90919063ffffffff16565b1515156103a257600080fd5b6103b6826001610a0590919063ffffffff16565b5050565b6000809054906101000a900473ffffffffffffffffffffffffffffffffffffffff1673ffffffffffffffffffffffffffffffffffffffff163373ffffffffffffffffffffffffffffffffffffffff1614151561041557600080fd5b600073ffffffffffffffffffffffffffffffffffffffff168173ffffffffffffffffffffffffffffffffffffffff161415151561045157600080fd5b6000809054906101000a900473ffffffffffffffffffffffffffffffffffffffff1673ffffffffffffffffffffffffffffffffffffffff167fb532073b38c83145e3e5135377a08bf9aab55bc0fd7c1179cd4fb995d2a5159c82604051808273ffffffffffffffffffffffffffffffffffffffff1673ffffffffffffffffffffffffffffffffffffffff16815260200191505060405180910390a2806000806101000a81548173ffffffffffffffffffffffffffffffffffffffff021916908373ffffffffffffffffffffffffffffffffffffffff16021790555050565b80600073ffffffffffffffffffffffffffffffffffffffff168173ffffffffffffffffffffffffffffffffffffffff161415151561056c57600080fd5b61058033600161095d90919063ffffffff16565b151561058b57600080fd5b61059f826003610a7a90919063ffffffff16565b1515156105ab57600080fd5b6105bf826003610b1390919063ffffffff16565b1515156105cb57600080fd5b60006105e1836003610b6490919063ffffffff16565b1115156105ed57600080fd5b610601826003610bb390919063ffffffff16565b5050565b60008082600073ffffffffffffffffffffffffffffffffffffffff168173ffffffffffffffffffffffffffffffffffffffff161415151561064557600080fd5b610659846003610b6490919063ffffffff16565b925061066f846003610b1390919063ffffffff16565b915050915091565b80600073ffffffffffffffffffffffffffffffffffffffff168173ffffffffffffffffffffffffffffffffffffffff16141515156106b457600080fd5b6106c83360016109af90919063ffffffff16565b15156106d357600080fd5b6106e7826003610d0890919063ffffffff16565b1515156106f357600080fd5b61070e826001600001546003610d5a9092919063ffffffff16565b5050565b6000809054906101000a900473ffffffffffffffffffffffffffffffffffffffff1673ffffffffffffffffffffffffffffffffffffffff163373ffffffffffffffffffffffffffffffffffffffff1614151561076d57600080fd5b3373ffffffffffffffffffffffffffffffffffffffff16ff5b6000809054906101000a900473ffffffffffffffffffffffffffffffffffffffff1681565b6000809054906101000a900473ffffffffffffffffffffffffffffffffffffffff1673ffffffffffffffffffffffffffffffffffffffff163373ffffffffffffffffffffffffffffffffffffffff1614151561080657600080fd5b80600073ffffffffffffffffffffffffffffffffffffffff168173ffffffffffffffffffffffffffffffffffffffff161415151561084357600080fd5b61085782600161095d90919063ffffffff16565b15151561086357600080fd5b610877826001610e7e90919063ffffffff16565b5050565b61088f3360016109af90919063ffffffff16565b156108ab576108aa33346001610f169092919063ffffffff16565b5b565b6000809054906101000a900473ffffffffffffffffffffffffffffffffffffffff1673ffffffffffffffffffffffffffffffffffffffff163373ffffffffffffffffffffffffffffffffffffffff1614151561090857600080fd5b600073ffffffffffffffffffffffffffffffffffffffff168173ffffffffffffffffffffffffffffffffffffffff161415151561094457600080fd5b8073ffffffffffffffffffffffffffffffffffffffff16ff5b6000808360010160008473ffffffffffffffffffffffffffffffffffffffff1673ffffffffffffffffffffffffffffffffffffffff168152602001908152602001600020600101541415905092915050565b600042610e108460010160008573ffffffffffffffffffffffffffffffffffffffff1673ffffffffffffffffffffffffffffffffffffffff16815260200190815260200160002060010154011015905092915050565b8160010160008273ffffffffffffffffffffffffffffffffffffffff1673ffffffffffffffffffffffffffffffffffffffff1681526020019081526020016000206000808201600090556001820160009055600282016000905550508160000160008154809291906001900391905055505050565b60008260000160008373ffffffffffffffffffffffffffffffffffffffff1673ffffffffffffffffffffffffffffffffffffffff16815260200190815260200160002060020160003373ffffffffffffffffffffffffffffffffffffffff1673ffffffffffffffffffffffffffffffffffffffff16815260200190815260200160002060009054906101000a900460ff16905092915050565b6000428360000160008473ffffffffffffffffffffffffffffffffffffffff1673ffffffffffffffffffffffffffffffffffffffff1681526020019081526020016000206001015410905092915050565b60008260000160008373ffffffffffffffffffffffffffffffffffffffff1673ffffffffffffffffffffffffffffffffffffffff16815260200190815260200160002060000154905092915050565b610c0b60018360000160008473ffffffffffffffffffffffffffffffffffffffff1673ffffffffffffffffffffffffffffffffffffffff1681526020019081526020016000206000015461105a90919063ffffffff16565b8260000160008373ffffffffffffffffffffffffffffffffffffffff1673ffffffffffffffffffffffffffffffffffffffff1681526020019081526020016000206000018190555060008260000160008373ffffffffffffffffffffffffffffffffffffffff1673ffffffffffffffffffffffffffffffffffffffff168152602001908152602001600020600001541415610d04577f08cc746990e6ea00a9c08466f70244c18832f0d08aadd0ae7cf911752d38a39881604051808273ffffffffffffffffffffffffffffffffffffffff1673ffffffffffffffffffffffffffffffffffffffff16815260200191505060405180910390a15b5050565b6000808360000160008473ffffffffffffffffffffffffffffffffffffffff1673ffffffffffffffffffffffffffffffffffffffff168152602001908152602001600020600101541415905092915050565b600080610d8660018416610d7860028661107390919063ffffffff16565b61108e90919063ffffffff16565b9150610d9d610e104261108e90919063ffffffff16565b90506040805190810160405280838152602001828152508560000160008673ffffffffffffffffffffffffffffffffffffffff1673ffffffffffffffffffffffffffffffffffffffff16815260200190815260200160002060008201518160000155602082015181600101559050507f38927ecd43251f849a1520e7bd3ce45309689e19088de3c969a441499cf233cb8482604051808373ffffffffffffffffffffffffffffffffffffffff1673ffffffffffffffffffffffffffffffffffffffff1681526020018281526020019250505060405180910390a15050505050565b6060604051908101604052806000815260200142815260200160008152508260010160008373ffffffffffffffffffffffffffffffffffffffff1673ffffffffffffffffffffffffffffffffffffffff16815260200190815260200160002060008201518160000155602082015181600101556040820151816002015590505081600001600081548092919060010191905055505050565b606060405190810160405280610f79838660010160008773ffffffffffffffffffffffffffffffffffffffff1673ffffffffffffffffffffffffffffffffffffffff1681526020019081526020016000206000015461108e90919063ffffffff16565b8152602001428152602001828152508360010160008473ffffffffffffffffffffffffffffffffffffffff1673ffffffffffffffffffffffffffffffffffffffff1681526020019081526020016000206000820151816000015560208201518160010155604082015181600201559050507f615b82d09530cb171fb9954512b751ee6d5197d08431b056ca6e8c3d8aca68118242604051808373ffffffffffffffffffffffffffffffffffffffff1673ffffffffffffffffffffffffffffffffffffffff1681526020018281526020019250505060405180910390a1505050565b600082821115151561106857fe5b818303905092915050565b600080828481151561108157fe5b0490508091505092915050565b60008082840190508381101515156110a257fe5b80915050929150505600a165627a7a72305820f7868c7642ed4556efc85ab7814f362b14d028f4acb8f709515f433c1fa0af2f0029",
  "source": "pragma solidity ^0.4.18;\r\n\r\nimport './common/Destructible.sol';\r\nimport './libs/MemberOperations.sol';\r\nimport './libs/VotingOperations.sol';\r\n\r\n\r\ncontract Core is Destructible {\r\n\tusing MemberOperations for MemberOperations.Data;\r\n\tMemberOperations.Data memberData;\r\n\r\n\tusing VotingOperations for VotingOperations.Data;\r\n\tVotingOperations.Data votingData;\r\n\r\n\tevent LogDonation(address member, uint256 time);\r\n\tevent LogNewVoting(address proposedMember, uint256 votingEnd);\r\n\tevent LogSuccessfulVoting(address proposedMember);\r\n\t\r\n\tmodifier validAddress(address _adr) {\r\n\t\trequire(_adr != address(0));\r\n\t\t_;\r\n\t}\r\n\r\n\tfunction Core() public {\r\n\t\tmemberData.addMember(msg.sender);\r\n\t}\r\n\r\n\tfunction addMember(address _newMember)\r\n\t\texternal\r\n\t\tonlyOwner\r\n\t\tvalidAddress(_newMember)\r\n\t{\r\n\t\trequire(!memberData.isMember(_newMember));\r\n\t\tmemberData.addMember(_newMember);\r\n\t}\r\n\r\n\tfunction removeMember(address _memberToRemove)\r\n\t\texternal\r\n\t\tonlyOwner\r\n\t\tvalidAddress(_memberToRemove)\r\n\t{\r\n\t\trequire(memberData.isMember(_memberToRemove));\r\n\t\trequire(!memberData.hasDonatedInTheLastHour(_memberToRemove));\r\n\t\tmemberData.removeMember(_memberToRemove);\r\n\t}\r\n\r\n\tfunction proposeMember(address _proposedMember)\r\n\t\tpublic\r\n\t\tvalidAddress(_proposedMember)\r\n\t{\r\n\t\trequire(memberData.hasDonatedInTheLastHour(msg.sender));\r\n\t\trequire(!votingData.hasAlreadyBeenConsidered(_proposedMember));\r\n\t\tvotingData.addNewVoting(_proposedMember, memberData.totalMembers);\r\n\t}\r\n\r\n\tfunction givePermission(address _proposedMember)\r\n\t\tpublic\r\n\t\tvalidAddress(_proposedMember)\r\n\t{\r\n\t\trequire(memberData.isMember(msg.sender));\r\n\t\trequire(!votingData.hasGivenPermission(_proposedMember));\r\n\t\trequire(!votingData.votingHasEndedFor(_proposedMember));\r\n\t\trequire(votingData.permissionsStillNeededFor(_proposedMember) > 0);\r\n\t\tvotingData.givePermission(_proposedMember);\r\n\t}\r\n\r\n\tfunction donate() public payable {\r\n\t\tif (memberData.hasDonatedInTheLastHour(msg.sender)) {\r\n\t\t\tmemberData.addDonation(msg.sender, msg.value);\r\n\t\t}\r\n\t}\r\n\r\n\tfunction getVotingInfo(address _proposedMember) \r\n\t\tpublic\r\n\t\tview\r\n\t\tvalidAddress(_proposedMember)\r\n\t\treturns (uint256 permissionsStillNeeded, bool votingHasEnded)\r\n\t{\r\n\t\tpermissionsStillNeeded = votingData.permissionsStillNeededFor(_proposedMember);\r\n\t\tvotingHasEnded = votingData.votingHasEndedFor(_proposedMember);\r\n\t}\r\n}",
  "sourcePath": "C:\\Users\\StArn\\Desktop\\Softuni\\SmartContractDevelopmentWithSolidity\\Topic7\\Homework\\contracts\\Core.sol",
  "compiler": {
    "name": "solc",
    "version": "0.4.19+commit.c4cbbb05.Emscripten.clang"
  },
  "schemaVersion": "1.0.1",
  "updatedAt": "2018-02-28T22:11:06.251Z"
}